:020000040800F2
:1000000000000220A50700089D0700089D070008C2
:100010009D0700089D0700089D07000800000000DC
:100020000000000000000000000000009D07000824
:100030009D070008000000009D0700089D070008BC
:100040009D0700089D0700089D0700089D07000800
:10005000000000009D0700089D0700089D0700089C
:100060009D0700089D0700089D0700089D070008E0
:100070009D0700089D0700089D0700089D070008D0
:100080009D0700089D0700089D0700089D070008C0
:100090009D0700089D0700089D0700089D070008B0
:1000A0009D0700089D0700089D0700089D070008A0
:1000B0009D0700089D0700089D0700089D07000890
:1000C0009D0700089D0700089D0700089D07000880
:1000D0009D0700089D0700089D0700089D07000870
:1000E0009D0700089D0700089D0700089D07000860
:1000F0009D0700089D0700089D0700089D07000850
:100100009D0700089D0700089D0700089D0700083F
:100110009D0700089D0700089D0700089D0700082F
:100120009D0700089D0700089D0700089D0700081F
:100130009D0700089D0700089D0700089D0700080F
:100140009D0700089D0700089D0700089D070008FF
:100150009D0700089D0700089D0700089D070008EF
:100160009D0700089D0700089D0700089D070008DF
:100170009D0700089D0700089D0700089D070008CF
:100180009D0700089D07000810B5054C237833B97A
:10019000044B13B10448AFF300800123237010BD5A
:1001A00078050020000000004818000808B5034B3F
:1001B0001BB103490348AFF3008008BD00000000F5
:1001C0007C05002048180008A3F5803A704700BF5E
:1001D000174B002B08BF134B9D46FFF7F5FF00217F
:1001E0008B460F461348144A121A00F0B8FC0E4B07
:1001F000002B00D098470D4B002B00D098470020D3
:10020000002104000D000D48002802D00C4800F029
:10021000B9FD00F027FD2000290000F013F800F0E0
:1002200003FB00BF00000800000000000000000009
:100230000000000078050020A8080020850D0008B7
:10024000A116000880B582B000AF00F019F800F0E8
:10025000B5F800F01DF900F063F9074800F0BCF9AB
:1002600000237B6002E07B6801337B607B68034A8C
:100270009342F8DDF1E700BF081800083F420F0085
:1002800080B400AF464B1B68454A43F4E0631360FB
:10029000434B1B68424A23F007031360404B1B6823
:1002A0003F4A43F0050313603E4B1B683D4A43F051
:1002B000805313603C4B1B683B4A43F480431360FC
:1002C0003A4B1B68394A43F48033136000BF374B05
:1002D0001B6803F40033002BF9D0354B1B68344AFC
:1002E00023F03F031360324B1B68314A23F47F53E2
:1002F00013602F4B1B682E4A23F4403313602C4BA2
:100300001B682B4A23F070631360294B294A1A603B
:10031000264B1B68254A43F08073136000BF234BB4
:100320001B6803F00073002BF9D0234B1B68224A93
:1003300023F0F0031360204B1F4A1B6813601E4B11
:100340001B681D4A23F4E05313601B4B1B681A4AB9
:1003500043F4A0531360184B1B68174A23F46043FF
:100360001360154B1B68144A43F400431360124B8F
:100370001B68114A23F0030313600F4B1B680E4ADE
:1003800043F00203136000BF0B4B1B6803F00C0328
:10039000082BF9D100BF00BFBD4680BC704700BF2D
:1003A000003C0240403802400070004000380240EB
:1003B00004380240195440070838024080B400AFA6
:1003C0002A4B1B68294A43F490731360284B1B681F
:1003D000274A23F440131360254B1B68244A43F437
:1003E00080131360234B234A1B681360224B1B6846
:1003F000214A23F4401313601F4B1B681E4A43F429
:10040000001313601D4B1B681C4A23F44013136038
:100410001A4B1A4A1B681360194B1B68184A23F4BD
:1004200040431360164B1B68154A43F48043136026
:10043000144B144A1B681360134B1B68124A23F4B5
:1004400040431360104B1B680F4A43F40043136092
:100450000E4B1B680D4A23F4404313600B4B0B4AB1
:100460001B68136000BFBD4680BC70473038024037
:100470000020024004200240082002400C200240DC
:100480000014024004140240081402400C140240FC
:1004900080B400AF1C4B1B681B4A43F01003136071
:1004A0001A4B1B68194A43F001031360184B1B6871
:1004B000174A23F470131360154B1B68144A43F456
:1004C00020131360134B1B68124A23F4C06313609C
:1004D000114B1B68104A23F4701313600E4B1B68FA
:1004E0000D4A43F4701313600C4B1B680B4A23F442
:1004F0007F631360094B1B68084A43F4EE63136083
:1005000000BFBD4680BC70474438024030380240CE
:1005100000000240040002400800024024000240A3
:1005200080B400AF1C4B1B681B4A23F400531360BC
:10053000194B00221A60194B00221A60184B002236
:100540001A60164B154A1B681360134B124A1B683E
:100550001360114B104A1B6813600F4B1B680E4A47
:1005600043F0040313600C4B1B680B4A43F0080371
:100570001360094B084A1B6813600A4B40F2D922EA
:100580001A60054B1B68044A43F40053136000BF14
:10059000BD4680BC704700BF0C10014010100140E8
:1005A000141001400810014080B483B000AF03462E
:1005B000FB7100BF064B1B6803F08003002BF9D0D2
:1005C000044AFB79136000BF0C37BD4680BC7047FE
:1005D000001001400410014080B582B000AF786087
:1005E00007E07B681B781846FFF7DEFF7B68013366
:1005F0007B607B681B78002BF3D100BF00BF0837FE
:10060000BD4680BD80B400AF334B1B68324A43F017
:1006100022031360314B1B68304A43F4805313604C
:100620002F4B1B682E4A23F47C6313602C4B1B68F2
:100630002B4A43F4286313602A4B1B68294A23F48E
:100640007C631360274B1B68264A43F428631360BE
:10065000254B1B68244A23F47C631360224B1B68E0
:10066000214A43F428631360204B1B681F4A23F47C
:100670007F0323F4704313601C4B1B681B4A43F435
:10068000AA0343F4A0431360194B1B68184A43F4B0
:1006900080731360174B1B68164A23F440331360B2
:1006A000144B1B68134A43F480331360124B1B68CE
:1006B000114A23F4403313600F4B1B680E4A43F476
:1006C000003313600D4B1B680C4A23F44033136056
:1006D00000BFBD4680BC70473038024044380240FD
:1006E00000040240080402400C04024020040240BE
:1006F0001414024000140240081402400C1402407A
:1007000080B400AF114B1B68104A43F4517343F09F
:10071000030313600D4B1B680C4A23F0380313606E
:100720000A4B1B68094A43F008031360084B1B6817
:10073000074A43F004031360054B1B68044A23F087
:100740001003136000BFBD4680BC704700300140FD
:100750000430014080B400AF054B1B68044A23F409
:100760008073136000BF1846BD4680BC704700BF51
:100770001414024080B485B000AF0346FB7100231F
:10078000FB7300BF18461437BD4680BC704780B469
:1007900000AF00BFBD4680BC704700BF80B400AF53
:1007A00000BFFDE780B586B000AF1A4A1A4BD31AD6
:1007B0007B60194B7B61194B3B610023FB600AE0B6
:1007C0003A69531C3B617B69591C796112781A7034
:1007D000FB680133FB60FA687B689A42F0D3104AE9
:1007E000104BD31A7B600F4B7B610023BB6007E08B
:1007F0007B695A1C7A6100221A70BB680133BB60A6
:10080000BA687B689A42F3D3FFF71CFD00BF183724
:10081000BD4680BD6C050020000000205418000873
:10082000A80800207805002008B50021044600F043
:1008300053FA034B1B6803B19847204600F0C4FFEE
:10084000CC060020002310B50446C0E90033C0E9FF
:100850000433836081814366C28183611946082223
:100860005C3000F07CF90D4B23620D4B63620D4B45
:10087000A3620D4BE3620D4BE4619C4206D003F191
:100880006802944202D0D0339C4205D104F1580052
:10089000BDE8104000F00BBA10BD00BFD50A00083B
:1008A000FB0A0008330B0008570B000894050020D2
:1008B000024A0349034800F0EFB800BF04000020DB
:1008C000491400081800002041680C4B994210B5EB
:1008D000044601D000F0B8FDA168094B994202D04E
:1008E000204600F0B1FDE168064B994204D0204655
:1008F000BDE8104000F0A8BD10BD00BF9405002069
:10090000FC0500206406002008B54B6EDA0705D40C
:100910008B899B0502D4886D00F0CDF9002008BDBD
:1009200008B54B6EDA0705D48B899B0502D4886D18
:1009300000F0C7F9002008BD10B50B4B0B4C0C4A5A
:100940001A60204600220421FFF77CFF04F16800B2
:1009500001220921FFF776FF04F1D0000222BDE851
:1009600010401221FFF76EBFCC0600209405002036
:10097000B1080008014800F09EB900BFDB06002066
:10098000014800F09EB900BFDB060020F8B507461D
:10099000FFF7F0FF234B1B680BB9FFF7CDFF224E8B
:1009A000D6E90134013B0FD53568002D37D14FF41E
:1009B000D671384600F002FB044628BB3060FFF7D2
:1009C000DFFF0C233B601BE0B4F90C50D5B9174B8B
:1009D000E36004F15800656600F069F9FFF7D0FFA5
:1009E000C4E90155C4E904552560A56108222946DA
:1009F00004F15C0000F0B3F8C4E90C55C4E91155EA
:100A00002046F8BD6834CDE70423056043600C3010
:100A1000A0604FF4D072294600F0A1F83460366827
:100A2000BEE700BFCC060020040000200100FFFF4D
:100A300010B50446FFF79EFF636B1BB1BDE8104085
:100A4000FFF79EBF044B6363044B1B68002BF5D17B
:100A5000FFF772FFF2E700BFC9080008CC060020CC
:100A600008B5FFF787FFBDE80840024A02490020A9
:100A700000F012B8040000200909000808B5044A73
:100A80000449002000F008F8BDE80840FFF778BFEF
:100A900004000020210900082DE9F8430746884694
:100AA00014460026D4E90195B9F1010905D5246859
:100AB000002CF7D13046BDE8F883AB89012B07D96C
:100AC000B5F90E30013303D029463846C0470643F6
:100AD0006835E9E710B50C46B1F90E1000F09EF844
:100AE0000028ABBF236DA3891B1823F48053ACBF30
:100AF0002365A38110BD002070472DE9F0411F46FA
:100B00008B89DB0505460C46164605D5B1F90E1056
:100B10000223002200F070F8A389B4F90E1023F428
:100B20008053A38132463B462846BDE8F04100F0A1
:100B300087B810B50C46B1F90E1000F05DF8431CF3
:100B4000A38915BF206523F4805343F48053A38108
:100B500018BFA38110BDB1F90E1000F009B802440E
:100B60000346934200D1704703F8011BF9E70000E8
:100B700038B5064D0023044608462B6000F0F6FD0C
:100B8000431C02D12B6803B1236038BDD00600207E
:100B9000184B1B68834270B504462AD0436C53B18E
:100BA0000025636C595999B90435802DF9D1616CD0
:100BB000204600F043F9A16B11B1204600F03EF948
:100BC000256C5DB1294620462D6800F037F9F8E71D
:100BD0000E68204600F032F93146E4E7E16C11B1CD
:100BE000204600F02BF9636B1BB12046BDE8704036
:100BF000184770BD1000002038B5074D0446084660
:100C0000114600222A601A4600F0B8FD431C02D1AA
:100C10002B6803B1236038BDD006002038B5074DDE
:100C200004460846114600222A601A4600F0AEFD2E
:100C3000431C02D12B6803B1236038BDD0060020CD
:100C400038B5074D04460846114600222A601A4668
:100C500000F0B2FD431C02D12B6803B1236038BD04
:100C6000D006002070B50D4D0D4C641BA41000265D
:100C7000A64209D10B4D0C4C00F0A8FD641BA4103A
:100C80000026A64205D170BD55F8043B98470136B1
:100C9000EEE755F8043B98470136F2E70000000004
:100CA00000000000000000000000000070477047D6
:100CB00070477047704770470120704701207047A8
:100CC00070477047024B13B1024800F05BB87047A1
:100CD00000000000A11600082DE9F74F274F0190F2
:100CE0003868DFF89C800E46FFF7E5FF4FF0010AF9
:100CF000D8F800502DB9386803B0BDE8F04FFFF7C1
:100D0000E0BF6C6804F1FF39013405EB8404B9F1EC
:100D1000000FF0DB3EB1D4F80021B24203D009F15C
:100D2000FF39043CF3E7696822680139494516BF79
:100D30000023C5F804902360002AF0D0D5F888116C
:100D4000D5F804B00AFA09FC1CEA010F08D1904753
:100D50006968D8F800205945CAD19542DFD0C7E765
:100D6000D5F88C01D4F880101CEA000F02D101984C
:100D70009047EDE708469047EAE700BF580100209A
:100D8000DC060020002301461A46184600F0A8BCE5
:100D90002DE9F84306460820894600F095FC244FCB
:100DA0008046304600F044FBBB685D6825F00305D3
:100DB000A5F11104A4EB09044444B4FBF8F4013C8C
:100DC00008FB04F4A04505DD304600F037FB0020A9
:100DD000BDE8F8830021304600F052FCBB682B448C
:100DE0009842F1D16142304600F04AFC013010D106
:100DF0000021304600F044FCBA68831A0F2BE3DD73
:100E00000C490968401A0C4943F00103086053601B
:100E1000DAE7BB68084A2D1B45F001055D601368E1
:100E200030461B1B136000F009FB0120D0E700BF18
:100E3000640100205C010020E0060020F8B50446B3
:100E40000F46002900F0B18000F0F2FA57F8042CA8
:100E5000564D22F00100A7F1080303EB000CA9682E
:100E6000DCF80460614526F0030602F001021BD1A4
:100E700006443AB957F8082C9B1A1644D3E90212D3
:100E8000CA60916046F001025A60AB60484B1B6833
:100E9000B34204D8474B20461968FFF779FF204634
:100EA000BDE8F84000F0CABACCF80460002A38D196
:100EB00057F8081C5B1A0844996805F10807B942FD
:100EC00031D0DF68CF60B9600CEB06014968C90713
:100ED0000BD4DCF8081030443ABB374EB14224D171
:100EE000C5E90433C3E90211012240F00101596050
:100EF0001850002AD3D1B0F5007F1BD2C2080121BF
:100F000040098140686801320143696055F8320048
:100F100005EBC2010839C3E9020145F83230C3606C
:100F2000BDE70022D0E70122CEE7DCF80C60CE60FE
:100F3000B160DAE7B0F5206F4FEA502214D282098F
:100F40003832511C05EBC20655F831108E4225D1BE
:100F50000120921000FA02F2686802436A60C3E955
:100F60000216B360CB609AE7142A01D85B32E8E737
:100F7000542A02D8020B6E32E3E7B2F5AA7F02D8F8
:100F8000C20B7732DDE740F254518A429ABF820C9D
:100F90007C327E22D5E789688E4204D04A6822F0EE
:100FA00003028242F7D8CE68D9E7F8BD6401002079
:100FB00060010020100700206C01002001F10B03EC
:100FC000162B2DE9F74F054606D933F0070704D550
:100FD0000C232B600024A1E11027B942F8D8284641
:100FE00000F026FAB7F5FC7FAE4E37D207F10802C3
:100FF0003244A2F1080154688C424FEAD70302D16F
:10100000D468A24210D06368D4E9021223F003032B
:10101000CA60234491605A6842F001025A6028462F
:1010200000F00CFA083479E1023334699E498C42AD
:1010300077D0626822F0030CACEB07000F2848DD84
:10104000E21940F0010347F001076760C6E9042296
:10105000C2E90211536044F80C00E0E77B0A2AD091
:10106000042B12D8BB0938335A1C06EBC202A2F17A
:10107000080C5468644506D0626822F00302D01B55
:101080000F281CDD013B0133CFE7142B01D85B3364
:10109000EAE7542B02D83B0B6E33E5E7B3F5AA7FA2
:1010A00002D8FB0B7733DFE740F25452934204D867
:1010B000BB0C7C33D8E73F23D6E77E23D4E7002858
:1010C000E16804DBA368D9608B60A318A3E70C4632
:1010D000D0E70028C6E9041107DBA444DCF804309B
:1010E00043F00103CCF8043099E7BCF5007F706849
:1010F00080F093804FEADC024FEA5C1E4FF0010C57
:1011000001320CFA0EFC4CEA0000706056F832C056
:1011100006EBC2000838C4E902C046F83240CCF8F9
:101120000C409810012282407068904226D31042F1
:1011300006D123F003035200104203F10403FAD056
:1011400006EBC308C1469E46D9F80C404C4540F01A
:10115000B7800EF1010E1EF0030F09F10809F3D15B
:10116000980740F0E180736823EA020373607068B7
:101170005200904202D3002A40F0E380D6F808A043
:10118000DAF8043023F00309B94504D3A9EB0702C8
:101190000F2A00F34181454B19681031394408206A
:1011A000019100F091FA424A0199136801331FBF7F
:1011B00001F1FF3109184342194080462846019148
:1011C00000F05EFA421C0AEB090B044600F0F780BF
:1011D00083450199364A02D9B24540F0F080354B3B
:1011E0001868A3450844186008F1FF3C40F0AB8044
:1011F0001BEA0C0F40F0A780B268494441F001019E
:1012000051602D4A1B6811688B4288BF13602B4ABE
:1012100011688B4288BF1360D1E0BCF5206F4FEAA4
:101220005C2218D24FEA9C12383202F1010E06EB12
:10123000C20856F83EE0F0452BD192104FF0010C59
:101240000CFA02F202437260C4E902E8C8F80840EE
:10125000CEF80C4065E7142A01D85B32E5E7542A42
:1012600003D84FEA1C326E32DFE7B2F5AA7F03D80B
:101270004FEADC327732D8E740F2545E72459ABFCB
:101280004FEA9C427C327E22CFE7DEF808E0F04550
:1012900005D0DEF8042022F003026245F5D8DEF81E
:1012A0000C80D1E7640100206C01002010070020B1
:1012B0005C010020E00600200C0700200807002049
:1012C0006068D4F80CC020F00300A0EB070ABAF164
:1012D0000F0F12DDA368E21947F001076760C3F83A
:1012E0000CC0CCF808304AF00103C6E90422C2E978
:1012F0000211536044F800A091E6BAF1000F11DB2F
:101300002044436843F00103436054F8083F2846F3
:10131000C3F80CC0CCF8083000F090F8204603B0B9
:10132000BDE8F08F644611E758F80809404503F11D
:10133000FF333FF415AF1AE7043352001042FBD0DD
:10134000FEE67346FAE7D2F800E0BEF1FF3F1BBFAE
:10135000A4EB0B0B0BEB000214601A6014F0070BEC
:101360001ABFCBF1080024185846621802EA0C0193
:101370008044A8EB010808EA0C084146284601927F
:1013800000F07EF9431C019A284B07D1BBF1000FF6
:1013900023D0ABF1080010444FF000081A68B46085
:1013A000001B4044424440F00100B2451A606060B6
:1013B0003FF427AFB9F10F0F12D801236360B36870
:1013C0005B6823F00303BB42A3EB070201D30F2AA0
:1013D00022DC284600F032F8FCE51046D846DDE76E
:1013E000DAF80420A9F10C0929F0070902F001023A
:1013F00042EA0902CAF8042005210AEB0902B9F100
:101400000F0FC2E901117FF6FCAE0AF10801284670
:10141000FFF714FD054BF4E6B46847F001032744D9
:1014200042F001026360B7607A60F8E5E0060020F0
:101430000148FFF740BC00BFD80600200148FFF775
:1014400040BC00BFD806002070B505460C46B9B1B7
:1014500018B1436B0BB9FFF7EBFA626EB4F90C30BD
:10146000D60704D498050ED4A06DFFF724FCB4F978
:101470000C3043B9636ED90702D4A06DFFF721FC8D
:101480000026304670BD2146284600F03BF8E36A4E
:10149000064633B1E169284698470028B8BF4FF0A7
:1014A000FF36A3891A0603D521692846FFF7C6FC33
:1014B000216B41B104F14003994202D02846FFF765
:1014C000BDFC00232363616C21B12846FFF7B6FC05
:1014D00000236364FFF74EFA0023A381636EDB07EA
:1014E00002D4A06DFFF7EDFBA06DFFF7E2FBFFF765
:1014F00047FAC6E7024B01461868FFF7A5BF00BFD1
:1015000010000020F8B50546B1F90C0006070C469E
:1015100057D440F400638B814B68002B02DCCB6B0B
:10152000002B4CDDA66A002E49D0002310F4805217
:101530002F68E1692B6034D0226DA389590705D546
:101540006368D21A236B0BB1E36BD21A0023A66A2D
:10155000E1692846B047431C06D12A681D2A47D8AE
:10156000294BD340DE0743D5B4F90C3023F4006295
:10157000A28100226260D9042269226004D5421C43
:1015800001D12B6803B92065216B2F60B9B104F13B
:101590004003994202D02846FFF750FC0023236302
:1015A0000DE001232846B0470246501CC5D12B68E8
:1015B000002BC2D01D2B01D0162B19D12F6000207B
:1015C0001DE00F69002FFAD083070E6808BF4B6932
:1015D0000F6018BF0023F61B8B60002EEFDDE16962
:1015E000D4F824C033463A462846E047002807DCB2
:1015F000B4F90C3043F04003A3814FF0FF30F8BD45
:101600000744361AE9E700BF0100402038B50C4610
:10161000054618B1436B0BB9FFF70AFAB4F90C0091
:10162000B8B1636EDB0704D4810502D4A06DFFF767
:1016300042FB28462146FFF765FF636EDA07054641
:1016400005D4A3899B0502D4A06DFFF73AFB284679
:1016500038BD0546FBE70000014620B9044A0549AC
:101660000548FFF719BA054B1868FFF7CFBF00BF51
:10167000040000200D1600081800002010000020B3
:1016800038B5064D0023044608462B6000F086F866
:10169000431C02D12B6803B1236038BDD006002063
:1016A00038B5074D074C641BA4101CB9BDE8384081
:1016B00000F092B8013C55F824309847F5E700BF98
:1016C0000000000000000000082808B506D000F067
:1016D00047F8162303604FF0FF3008BD8020FCE779
:1016E0002DE9F047DFF86CA00646DAF800009846CE
:1016F0000F469146FFF7DFFA174B1C680CB9174CE1
:101700001C606568DAF800001F2D05DDFFF7D9FAC7
:101710004FF0FF30BDE8F0879EB104EB8501012258
:10172000C1F88890D4F88831AA401343C4F88831AE
:10173000022EC1F8088102BFD4F88C311343C4F8DB
:101740008C316B1C0235636044F82570FFF7B9FAE1
:101750000020DFE758010020DC06002014070020ED
:10176000014B1868704700BF10000020024B582240
:101770001A604FF0FF307047D0060020024B58220D
:101780001A604FF0FF307047D0060020024B5822FD
:101790001A604FF0FF307047D0060020044A1168ED
:1017A000034609B903491160106803441360704788
:1017B000A4080020A8080020024B58221A604FF00D
:1017C000FF307047D0060020FEE70000F8B500BFEC
:1017D000F8BC08BC9E467047F8B500BFF8BC08BC12
:1017E0009E4670473E410C4111412741364103411D
:1017F000064115410F410E41264113412941024145
:1018000019410A410B410000426172656D657461C6
:101810006C20555341525431207570646174650DCC
:101820000A0000003E410C4111412741364103416D
:10183000064115410F410E41264113412941024104
:0818400019410A410B410000AF
:04184800000000009C
:08184C007CE9FF7F01000000B0
:1018540000000000000000000300000094050020C8
:101864001800002000000000000000009405002083
:10187400FC050020640600200000000000000000B9
:101884000000000000000000000000000000000054
:101894000000000000000000000000000000000044
:1018A4000000000000000000000000000000000034
:1018B4000000000000000000000000000000000024
:1018C4000000000000000000000000000000000014
:1018D4000000000000000000000000000000000004
:1018E40000000000000000000000000000000000F4
:1018F40000000000000000000000000000000000E4
:1019040001000000000000000E33CDAB34126DE680
:10191400ECDE05000B0000000000000000000000E9
:1019240000000000000000000000000000000000B3
:1019340000000000000000000000000000000000A3
:101944000000000000000000000000000000000093
:101954000000000000000000000000000000000083
:101964000000000000000000000000000000000073
:101974000000000000000000000000000000000063
:101984000000000000000000000000000000000053
:101994000000000000000000000000000000000043
:1019A4000000000000000000DA060020FFFFFFFF37
:1019B400000002000000000000000000640100209C
:1019C400640100206C0100206C01002074010020DF
:1019D400740100207C0100207C010020840100208F
:1019E400840100208C0100208C010020940100203F
:1019F400940100209C0100209C010020A4010020EF
:101A0400A4010020AC010020AC010020B40100209E
:101A1400B4010020BC010020BC010020C40100204E
:101A2400C4010020CC010020CC010020D4010020FE
:101A3400D4010020DC010020DC010020E4010020AE
:101A4400E4010020EC010020EC010020F40100205E
:101A5400F4010020FC010020FC010020040200200D
:101A6400040200200C0200200C02002014020020BA
:101A7400140200201C0200201C020020240200206A
:101A8400240200202C0200202C020020340200201A
:101A9400340200203C0200203C02002044020020CA
:101AA400440200204C0200204C020020540200207A
:101AB400540200205C0200205C020020640200202A
:101AC400640200206C0200206C02002074020020DA
:101AD400740200207C0200207C020020840200208A
:101AE400840200208C0200208C020020940200203A
:101AF400940200209C0200209C020020A4020020EA
:101B0400A4020020AC020020AC020020B402002099
:101B1400B4020020BC020020BC020020C402002049
:101B2400C4020020CC020020CC020020D4020020F9
:101B3400D4020020DC020020DC020020E4020020A9
:101B4400E4020020EC020020EC020020F402002059
:101B5400F4020020FC020020FC0200200403002008
:101B6400040300200C0300200C03002014030020B5
:101B7400140300201C0300201C0300202403002065
:101B8400240300202C0300202C0300203403002015
:101B9400340300203C0300203C03002044030020C5
:101BA400440300204C0300204C0300205403002075
:101BB400540300205C0300205C0300206403002025
:101BC400640300206C0300206C03002074030020D5
:101BD400740300207C0300207C0300208403002085
:101BE400840300208C0300208C0300209403002035
:101BF400940300209C0300209C030020A4030020E5
:101C0400A4030020AC030020AC030020B403002094
:101C1400B4030020BC030020BC030020C403002044
:101C2400C4030020CC030020CC030020D4030020F4
:101C3400D4030020DC030020DC030020E4030020A4
:101C4400E4030020EC030020EC030020F403002054
:101C5400F4030020FC030020FC0300200404002003
:101C6400040400200C0400200C04002014040020B0
:101C7400140400201C0400201C0400202404002060
:101C8400240400202C0400202C0400203404002010
:101C9400340400203C0400203C04002044040020C0
:101CA400440400204C0400204C0400205404002070
:101CB400540400205C0400205C0400206404002020
:101CC400640400206C0400206C04002074040020D0
:101CD400740400207C0400207C0400208404002080
:101CE400840400208C0400208C0400209404002030
:101CF400940400209C0400209C040020A4040020E0
:101D0400A4040020AC040020AC040020B40400208F
:101D1400B4040020BC040020BC040020C40400203F
:101D2400C4040020CC040020CC040020D4040020EF
:101D3400D4040020DC040020DC040020E40400209F
:101D4400E4040020EC040020EC040020F40400204F
:101D5400F4040020FC040020FC04002004050020FE
:101D6400040500200C0500200C05002014050020AB
:101D7400140500201C0500201C050020240500205B
:101D8400240500202C0500202C050020340500200B
:101D9400340500203C0500203C05002044050020BB
:101DA400440500204C0500204C050020540500206B
:0C1DB400540500205C0500205C050020A8
:041DC000AD01000869
:041DC4008901000889
:041DC800C50C00083E
:04000005080007A543
:00000001FF
